{
  "contractName": "Survey",
  "abi": [
    {
      "inputs": [],
      "payable": false,
      "stateMutability": "nonpayable",
      "type": "constructor"
    },
    {
      "constant": true,
      "inputs": [],
      "name": "_totalPeopleSubmitted",
      "outputs": [
        {
          "internalType": "uint256",
          "name": "",
          "type": "uint256"
        }
      ],
      "payable": false,
      "stateMutability": "view",
      "type": "function"
    },
    {
      "constant": true,
      "inputs": [
        {
          "internalType": "address",
          "name": "",
          "type": "address"
        }
      ],
      "name": "answerBook",
      "outputs": [
        {
          "internalType": "string",
          "name": "",
          "type": "string"
        }
      ],
      "payable": false,
      "stateMutability": "view",
      "type": "function"
    },
    {
      "constant": true,
      "inputs": [],
      "name": "owner",
      "outputs": [
        {
          "internalType": "address",
          "name": "",
          "type": "address"
        }
      ],
      "payable": false,
      "stateMutability": "view",
      "type": "function"
    },
    {
      "constant": true,
      "inputs": [],
      "name": "paused",
      "outputs": [
        {
          "internalType": "bool",
          "name": "",
          "type": "bool"
        }
      ],
      "payable": false,
      "stateMutability": "view",
      "type": "function"
    },
    {
      "constant": true,
      "inputs": [],
      "name": "survey_question",
      "outputs": [
        {
          "internalType": "string",
          "name": "",
          "type": "string"
        }
      ],
      "payable": false,
      "stateMutability": "view",
      "type": "function"
    },
    {
      "constant": true,
      "inputs": [
        {
          "internalType": "address",
          "name": "",
          "type": "address"
        }
      ],
      "name": "usersAnswered",
      "outputs": [
        {
          "internalType": "bool",
          "name": "",
          "type": "bool"
        }
      ],
      "payable": false,
      "stateMutability": "view",
      "type": "function"
    },
    {
      "constant": false,
      "inputs": [
        {
          "internalType": "bool",
          "name": "ch",
          "type": "bool"
        }
      ],
      "name": "changeContractState",
      "outputs": [],
      "payable": false,
      "stateMutability": "nonpayable",
      "type": "function"
    },
    {
      "constant": false,
      "inputs": [
        {
          "internalType": "string",
          "name": "_question",
          "type": "string"
        }
      ],
      "name": "setQuestion",
      "outputs": [],
      "payable": false,
      "stateMutability": "nonpayable",
      "type": "function"
    },
    {
      "constant": false,
      "inputs": [
        {
          "internalType": "string",
          "name": "_response",
          "type": "string"
        }
      ],
      "name": "updateAnswer",
      "outputs": [],
      "payable": false,
      "stateMutability": "nonpayable",
      "type": "function"
    },
    {
      "constant": false,
      "inputs": [],
      "name": "removeAnswer",
      "outputs": [],
      "payable": false,
      "stateMutability": "nonpayable",
      "type": "function"
    },
    {
      "constant": true,
      "inputs": [],
      "name": "hasAnsweredTheQuestion",
      "outputs": [
        {
          "internalType": "bool",
          "name": "",
          "type": "bool"
        }
      ],
      "payable": false,
      "stateMutability": "view",
      "type": "function"
    },
    {
      "constant": false,
      "inputs": [
        {
          "internalType": "string",
          "name": "_response",
          "type": "string"
        }
      ],
      "name": "answerQuestion",
      "outputs": [],
      "payable": false,
      "stateMutability": "nonpayable",
      "type": "function"
    },
    {
      "constant": false,
      "inputs": [
        {
          "internalType": "address payable",
          "name": "ender",
          "type": "address"
        }
      ],
      "name": "destroy",
      "outputs": [],
      "payable": false,
      "stateMutability": "nonpayable",
      "type": "function"
    }
  ],
  "bytecode": "0x608060405234801561001057600080fd5b5033600260016101000a81548173ffffffffffffffffffffffffffffffffffffffff021916908373ffffffffffffffffffffffffffffffffffffffff1602179055506000600260006101000a81548160ff0219169083151502179055506000600260156101000a81548160ff021916908315150217905550611123806100976000396000f3fe608060405234801561001057600080fd5b50600436106100ce5760003560e01c80636e1ad4fa1161008c5780638da5cb5b116100665780638da5cb5b14610424578063a3fdc5e51461046e578063d3754fd3146104f1578063eae09e4e146105ac576100ce565b80636e1ad4fa146102a25780637056364b146102ac578063799e18c014610369576100ce565b8062f55d9d146100d35780630fc6bfb6146101175780633fa83c67146101735780635c975abb14610195578063689a521d146101b75780636995f2c9146101e7575b600080fd5b610115600480360360208110156100e957600080fd5b81019080803573ffffffffffffffffffffffffffffffffffffffff1690602001909291905050506105ca565b005b6101596004803603602081101561012d57600080fd5b81019080803573ffffffffffffffffffffffffffffffffffffffff1690602001909291905050506106a6565b604051808215151515815260200191505060405180910390f35b61017b6106c6565b604051808215151515815260200191505060405180910390f35b61019d610732565b604051808215151515815260200191505060405180910390f35b6101e5600480360360208110156101cd57600080fd5b81019080803515159060200190929190505050610745565b005b6102a0600480360360208110156101fd57600080fd5b810190808035906020019064010000000081111561021a57600080fd5b82018360208201111561022c57600080fd5b8035906020019184600183028401116401000000008311171561024e57600080fd5b91908080601f016020809104026020016040519081016040528093929190818152602001838380828437600081840152601f19601f820116905080830192505050505050509192919290505050610825565b005b6102aa610a16565b005b6102ee600480360360208110156102c257600080fd5b81019080803573ffffffffffffffffffffffffffffffffffffffff169060200190929190505050610c05565b6040518080602001828103825283818151815260200191508051906020019080838360005b8381101561032e578082015181840152602081019050610313565b50505050905090810190601f16801561035b5780820380516001836020036101000a031916815260200191505b509250505060405180910390f35b6104226004803603602081101561037f57600080fd5b810190808035906020019064010000000081111561039c57600080fd5b8201836020820111156103ae57600080fd5b803590602001918460018302840111640100000000831117156103d057600080fd5b91908080601f016020809104026020016040519081016040528093929190818152602001838380828437600081840152601f19601f820116905080830192505050505050509192919290505050610cb5565b005b61042c610dad565b604051808273ffffffffffffffffffffffffffffffffffffffff1673ffffffffffffffffffffffffffffffffffffffff16815260200191505060405180910390f35b610476610dd3565b6040518080602001828103825283818151815260200191508051906020019080838360005b838110156104b657808201518184015260208101905061049b565b50505050905090810190601f1680156104e35780820380516001836020036101000a031916815260200191505b509250505060405180910390f35b6105aa6004803603602081101561050757600080fd5b810190808035906020019064010000000081111561052457600080fd5b82018360208201111561053657600080fd5b8035906020019184600183028401116401000000008311171561055857600080fd5b91908080601f016020809104026020016040519081016040528093929190818152602001838380828437600081840152601f19601f820116905080830192505050505050509192919290505050610e71565b005b6105b4610ffa565b6040518082815260200191505060405180910390f35b600260019054906101000a900473ffffffffffffffffffffffffffffffffffffffff1673ffffffffffffffffffffffffffffffffffffffff163373ffffffffffffffffffffffffffffffffffffffff161461068d576040517f08c379a00000000000000000000000000000000000000000000000000000000081526004018080602001828103825260118152602001807f596f7520617265206e6f74206f776e657200000000000000000000000000000081525060200191505060405180910390fd5b8073ffffffffffffffffffffffffffffffffffffffff16ff5b60046020528060005260406000206000915054906101000a900460ff1681565b600060011515600460003373ffffffffffffffffffffffffffffffffffffffff1673ffffffffffffffffffffffffffffffffffffffff16815260200190815260200160002060009054906101000a900460ff161515141561072a576001905061072f565b600090505b90565b600260009054906101000a900460ff1681565b600260019054906101000a900473ffffffffffffffffffffffffffffffffffffffff1673ffffffffffffffffffffffffffffffffffffffff163373ffffffffffffffffffffffffffffffffffffffff1614610808576040517f08c379a00000000000000000000000000000000000000000000000000000000081526004018080602001828103825260118152602001807f596f7520617265206e6f74206f776e657200000000000000000000000000000081525060200191505060405180910390fd5b80600260006101000a81548160ff02191690831515021790555050565b60011515600260159054906101000a900460ff161515146108ae576040517f08c379a00000000000000000000000000000000000000000000000000000000081526004018080602001828103825260168152602001807f4e6f207175657374696f6e20617661696c61626c652e0000000000000000000081525060200191505060405180910390fd5b60001515600460003373ffffffffffffffffffffffffffffffffffffffff1673ffffffffffffffffffffffffffffffffffffffff16815260200190815260200160002060009054906101000a900460ff16151514610957576040517f08c379a00000000000000000000000000000000000000000000000000000000081526004018080602001828103825260278152602001806110c86027913960400191505060405180910390fd5b80600360003373ffffffffffffffffffffffffffffffffffffffff1673ffffffffffffffffffffffffffffffffffffffff16815260200190815260200160002090805190602001906109aa929190611000565b506001600460003373ffffffffffffffffffffffffffffffffffffffff1673ffffffffffffffffffffffffffffffffffffffff16815260200190815260200160002060006101000a81548160ff0219169083151502179055506001806000828254019250508190555050565b60011515600260159054906101000a900460ff16151514610a9f576040517f08c379a00000000000000000000000000000000000000000000000000000000081526004018080602001828103825260168152602001807f4e6f207175657374696f6e20617661696c61626c652e0000000000000000000081525060200191505060405180910390fd5b60011515600460003373ffffffffffffffffffffffffffffffffffffffff1673ffffffffffffffffffffffffffffffffffffffff16815260200190815260200160002060009054906101000a900460ff16151514610b48576040517f08c379a00000000000000000000000000000000000000000000000000000000081526004018080602001828103825260228152602001806110a66022913960400191505060405180910390fd5b60405180602001604052806000815250600360003373ffffffffffffffffffffffffffffffffffffffff1673ffffffffffffffffffffffffffffffffffffffff1681526020019081526020016000209080519060200190610baa929190611000565b506000600460003373ffffffffffffffffffffffffffffffffffffffff1673ffffffffffffffffffffffffffffffffffffffff16815260200190815260200160002060006101000a81548160ff021916908315150217905550565b60036020528060005260406000206000915090508054600181600116156101000203166002900480601f016020809104026020016040519081016040528092919081815260200182805460018160011615610100020316600290048015610cad5780601f10610c8257610100808354040283529160200191610cad565b820191906000526020600020905b815481529060010190602001808311610c9057829003601f168201915b505050505081565b600260019054906101000a900473ffffffffffffffffffffffffffffffffffffffff1673ffffffffffffffffffffffffffffffffffffffff163373ffffffffffffffffffffffffffffffffffffffff1614610d78576040517f08c379a00000000000000000000000000000000000000000000000000000000081526004018080602001828103825260118152602001807f596f7520617265206e6f74206f776e657200000000000000000000000000000081525060200191505060405180910390fd5b8060009080519060200190610d8e929190611000565b506001600260156101000a81548160ff02191690831515021790555050565b600260019054906101000a900473ffffffffffffffffffffffffffffffffffffffff1681565b60008054600181600116156101000203166002900480601f016020809104026020016040519081016040528092919081815260200182805460018160011615610100020316600290048015610e695780601f10610e3e57610100808354040283529160200191610e69565b820191906000526020600020905b815481529060010190602001808311610e4c57829003601f168201915b505050505081565b60011515600260159054906101000a900460ff16151514610efa576040517f08c379a00000000000000000000000000000000000000000000000000000000081526004018080602001828103825260168152602001807f4e6f207175657374696f6e20617661696c61626c652e0000000000000000000081525060200191505060405180910390fd5b60011515600460003373ffffffffffffffffffffffffffffffffffffffff1673ffffffffffffffffffffffffffffffffffffffff16815260200190815260200160002060009054906101000a900460ff16151514610fa3576040517f08c379a00000000000000000000000000000000000000000000000000000000081526004018080602001828103825260228152602001806110a66022913960400191505060405180910390fd5b80600360003373ffffffffffffffffffffffffffffffffffffffff1673ffffffffffffffffffffffffffffffffffffffff1681526020019081526020016000209080519060200190610ff6929190611000565b5050565b60015481565b828054600181600116156101000203166002900490600052602060002090601f016020900481019282601f1061104157805160ff191683800117855561106f565b8280016001018555821561106f579182015b8281111561106e578251825591602001919060010190611053565b5b50905061107c9190611080565b5090565b6110a291905b8082111561109e576000816000905550600101611086565b5090565b9056fe5573657220686173206e6f7420616e73776572656420746865207175657374696f6e557365722068617320616c726561647920616e73776572656420746865207175657374696f6e21a265627a7a72315820581839232cd3a4ddc7c340c278e09574655e5e7a4cd87241d72a221e21e3809e64736f6c63430005100032",
  "source": "pragma solidity >=0.4.22 <0.7.0;\r\n\r\ncontract Survey{\r\n    string public survey_question;\r\n    uint256 public _totalPeopleSubmitted;\r\n    bool public paused;\r\n    address public owner;\r\n    bool _q;\r\n    \r\n    mapping (address => string) public answerBook;\r\n    mapping (address => bool) public usersAnswered;\r\n    \r\n    \r\n    constructor() public{\r\n        owner = msg.sender;\r\n        paused = false;\r\n        _q = false;\r\n    }\r\n    \r\n    modifier onlyOwner(){\r\n        require(msg.sender == owner, \"You are not owner\");\r\n        _;\r\n    }\r\n    \r\n    modifier questionExists() {\r\n        require(_q == true, \"No question available.\");\r\n        _;\r\n    }\r\n\r\n    modifier withoutPaused() {\r\n        require(paused == false, \"Contract is paused\");\r\n        _;\r\n    }\r\n    \r\n    function changeContractState(bool ch) public onlyOwner{\r\n        paused = ch;\r\n    }\r\n    \r\n    function setQuestion(string memory _question) public onlyOwner{\r\n        survey_question = _question;\r\n        _q = true;\r\n    }\r\n    \r\n    modifier hasNotAnswered() {\r\n        require(usersAnswered[msg.sender] == false, \"User has already answered the question!\");\r\n        _;\r\n    }\r\n    \r\n    modifier hasAnswered() {\r\n        require(usersAnswered[msg.sender] == true, \"User has not answered the question\");\r\n        _;\r\n    }\r\n    \r\n    function updateAnswer(string memory _response) public questionExists hasAnswered{\r\n        answerBook[msg.sender] = _response;\r\n    }\r\n    \r\n    function removeAnswer() public questionExists hasAnswered{\r\n        answerBook[msg.sender] = \"\";\r\n        usersAnswered[msg.sender] = false;\r\n    }\r\n    \r\n    function hasAnsweredTheQuestion() public view returns(bool) {\r\n        if(usersAnswered[msg.sender] == true){\r\n            return true;\r\n        }\r\n        return false;\r\n    }\r\n    \r\n    function answerQuestion(string memory _response) public questionExists hasNotAnswered{\r\n        answerBook[msg.sender] = _response;\r\n        usersAnswered[msg.sender] = true;\r\n        _totalPeopleSubmitted += 1;\r\n    }\r\n    \r\n    function destroy(address payable ender) public onlyOwner{\r\n        selfdestruct(ender);\r\n    }\r\n}",
  "sourcePath": "C:/Users/tanis/Desktop/Blockchain/survey_system/contracts/Survey.sol",
  "compiler": {
    "name": "solc",
    "version": "0.5.16+commit.9c3226ce.Emscripten.clang"
  },
  "schemaVersion": "3.2.4",
  "updatedAt": "2021-01-03T09:01:06.122Z",
  "networkType": "ethereum",
  "devdoc": {
    "methods": {}
  },
  "userdoc": {
    "methods": {}
  }
}